:020000040800F2
:1000000000130020710200087930000889290008D7
:1000100075300008B1080008213300080000000016
:100020000000000000000000000000008130000817
:10003000C1080008000000007D300008853000087D
:100040008B0200088B0200088B0200088B0200085C
:100050008B0200088B0200088B0200088B0200084C
:100060008B0200088B0200088B0200088B0200083C
:100070008B0200088B0200088B0200088B0200082C
:100080008B0200088B020008A50800080000000091
:100090000000000000000000000000008B020008CB
:1000A0008B0200088B0200088B0200088B020008FC
:1000B0008B0200088B0200088B0200088D290008C3
:1000C0008B0200088B0200088B0200088B020008DC
:1000D0008B0200088B0200088B0200080000000061
:1000E0008B0200088B0200088B0200080000000051
:1000F0000000000000000000000000008B0200086B
:10010000000000008B0200088B0200088B02000830
:1001100000000000000000000000000000000000DF
:10012000B50800088B0200088B0200088B0200084B
:100130008B0200080000000000000000000000002A
:100140000000000000000000000000008B0200081A
:100150008B0200088B0200088B0200088B0200084B
:100160008B0200088B020008000000000000000065
:10017000000000000000000000000000000000007F
:10018000000000008B0200080000000000000000DA
:100190008B02000800F002F800F05AF814A696E866
:1001A000000CB244B344DA4501D100F051F8BAE88A
:1001B0000F000FA696E83000A5EB040504EB060738
:1001C000AAEB0704A7F101074FEA15154FEA34140B
:1001D000A4F10104AC4201D300F03AF813F0010F8E
:1001E00018BFFB1A43F0010300F001F8DBE71847E2
:1001F000FC4400001C450000103A24BF78C878C1B8
:10020000FAD8520724BF30C830C144BF04680C601C
:1002100070470000704700000023002400250026DE
:10022000103A28BF78C1FBD8520728BF30C148BF59
:100230000B607047752900F02381732900F0F48268
:10024000002070471FB504F096F91FBD10B510BD12
:1002500000F0EEFA1146FFF7F5FF03F0CBF800F0DF
:100260000CFB03B4FFF7F2FF03BC00F013FB00002C
:100270000948804709480047FEE7FEE7FEE7FEE73A
:10028000FEE7FEE7FEE7FEE7FEE7FEE70448054976
:10029000054A064B704700002D3100089501000803
:1002A000000D002000130020000F0020000F002090
:1002B00053EA020C00F069802DE9F04B4FF0000684
:1002C000002B1FBFB3FA83F503FA05F424FA05F6F1
:1002D0005E4012BF1643B2FA82F502FA05F4C5F188
:1002E00020051EBF22FA05FC44EA0C04203556EA1C
:1002F000044C4FEA144418BF641C4FF000084FF040
:100300000009904271EB030C39D3002919BFB1FAEF
:1003100081F701FA07F6B0FA80F700FA07F6C7F19D
:1003200020071EBF20FA07FC46EA0C062037B6FB62
:10033000F4FCA7EB0507103F07F01F0BCBF12006DD
:100340002CFA06F60CFA0BFB44BFB3460026202F0E
:10035000A4BF5E464FF0000B5BEA060C08BF4FF0EF
:10036000010B19EB0B0948EB0608ABFB027C06FB03
:1003700002CC0BFB03CCC01B71EB0C01C1E70B469D
:10038000024641464846BDE8F08B13B5084318BF06
:100390004FF0FF300146AFF30080BDE81C407047CE
:1003A0000FB41CB50C0007AA009007D04142A1422F
:1003B00002D32044401E01E04FF0FF30074B7B4446
:1003C00069460190069800F002FA0020002C01D046
:1003D000009908701CBC5DF814FB00003304000099
:1003E00070B5044685690068C10601D5302600E075
:1003F0002026C00707D070BDD4E9012130469047C0
:10040000206A401C20626D1EF6D570BD70B5044692
:1004100085690078C00707D170BDD4E9012120208B
:100420009047206A401C20626D1EF6D570BD70B5E5
:100430000C460546012A05D02878800600D5EA69D1
:10044000002302E0012305E05B1C934202D2E05C42
:100450000028F9D1A869E618C01AA861286A1844CA
:1004600028622846FFF7BCFF04E0D5E9012114F813
:10047000010B9047B442F8D32846FFF7C7FF70BD81
:100480002DE9F0410646002410687529314616A56D
:1004900010D0AFF30080002802DA404213A507E035
:1004A00031688A0701D512A502E0490704D511A5D4
:1004B000012401E0AFF3008000210A2206F12407A5
:1004C00009E0B0FBF2FCB0FBF2F302FB1C003030A1
:1004D00078541846491C0028F3D123462A46304652
:1004E000BDE8F04100F015B9000000002D0000004B
:1004F0002B000000200000002DE9F05F8946044633
:100500004FF0000ADFF874B1FB44C0F820A0204689
:10051000E1688847002874D0252806D0D4E9012155
:100520009047206A401C2062F1E700265F46204683
:10053000E16888472028054607DB312D05D2781968
:1005400010F8200C08B10643F1E7B00701D526F0FA
:100550000406C4F81CA00027C4F818A02A2D09D04E
:10056000284604F001F838B304EB8708303DC8F89A
:10057000185019E059F8041B204604EB87029161DA
:10058000E1688847012F054618D1E069002820DA84
:1005900026F020061DE0D8F8180000EB800005EBDF
:1005A00040003038C8F818002046E1688847054602
:1005B00003F0DAFF0028EED1012F0AD02E2D08D14A
:1005C0002046E16888477F1C0546022F46F020063A
:1005D000C4DBA069002803DA404246F00106A061AE
:1005E000F00701D026F010066C2D0BD0682D09D035
:1005F0004C2D39D06A2D35D0742D35D07A2D33D08D
:1006000016E038E0E1682F4620468847B8420546A4
:1006100009D16C2F26D04FF48060E1680643204654
:100620008847054604E06C2F1AD04FF480700643CB
:100630000DB3A5F14100192802D8203546F4006613
:100640004A462946204626604E46FFF7F3FD80B114
:1006500001280BD0F61D26F0070000F1080956E727
:100660004020E4E78020D8E70020D6E706F104091F
:100670004DE7284652E7206ABDE8F09F844000001D
:1006800010B5431C02E010F8011B71B18107FAD1CB
:100690004FF0013202C88C1A8C4314EAC211F9D00F
:1006A000C01A0A0603D0C01E10BDC01A10BD0A042D
:1006B00001D0801E10BD0902FCD0401E10BD4FF0BD
:1006C000000200B5134694469646203922BFA0E8A2
:1006D0000C50A0E80C50B1F12001BFF4F7AF0907AE
:1006E00028BFA0E80C5048BF0CC05DF804EB89009F
:1006F00028BF40F8042B08BF704748BF20F8022BE2
:1007000011F0804F18BF00F8012B704770477047F9
:1007100070472DE9F0470D4699469246044600F190
:1007200024080168880604D5E06921F010012160E1
:1007300000E00120A84201DD471B00E00027A1697D
:100740007A1902EB0900081AA0612078C00602D4C9
:100750002046FFF745FE002608E0D4E901211AF8FB
:1007600006009047206A401C761C20624E45F4DB50
:100770002078C0060AD52046FFF732FE06E0D4E90D
:10078000012130209047206A401C2062381EA7F1CA
:100790000107F4DC07E0D4E9012118F805009047CF
:1007A000206A401C2062281EA5F10105F3DC2046CA
:1007B000FFF72CFE2078000602D50220BDE8F08766
:1007C0000120FBE701694A1C02610878704700B507
:1007D0008FB0CDE901310021059105497944CDE97A
:1007E000031011466846FFF787FE0FB000BD0000FA
:1007F000E5FFFFFFD1E900239A4202D2531C0B60B0
:100800001070704710B5436913B1AFF3008001E079
:10081000FFF70DFE012010BD127800F124010A70CF
:1008200000224A700122EDE711684FF0FF32E9E73C
:10083000754600F02BF8AE4605006946534620F099
:100840000700854618B020B5FFF720FDBDE8204021
:100850004FF000064FF000074FF000084FF0000B7C
:10086000AC46ACE8C009ACE8C009ACE8C009ACE8EB
:10087000C00921F007018D46704710B50446AFF35B
:1008800000802046BDE81040FFF7EBBC00487047F1
:100890001000002001491820ABBEFEE72600020030
:1008A0007047000040F27400C2F2000000F0E8B8A7
:1008B000FEE7000040F2BC40C2F2000000F03EBB88
:1008C0007047000072B600BFFEE7000070470000EE
:1008D00070B581B00022009290F83C20012A03D12B
:1008E000022001B070BD00BFD1F800E001221FFA64
:1008F0008EFC4FEA4C0380F83C200EEB4E0213FABC
:100900008EF31024BEF1090F88BFA3F11E0288BF29
:100910000C24036807251E59954026EA05051D513C
:100920008D681E5905FA02F232431A5149680629A8
:1009300006D801EB81014A1F194651F8345F0EE0D9
:100940000C2901EB810105D8A1F12302194651F8C8
:10095000305F04E0A1F14102194651F82C5F1F24D9
:10096000944025EA04040C600CFA02F20C6842F28E
:10097000043CC4F2010C2243ACF54174A3420A606A
:100980003ED1BEF1120F07D1DCF8001041F4800116
:10099000CCF8001034E000BF2EF0010110292FD157
:1009A000DCF80010BEF1100F41F40001CCF800108B
:1009B00026D140F20801C2F2000109684DF68362B7
:1009C000C4F21B32A1FB0212910C01EB8101490020
:1009D00000910099A1B1009901390091009979B174
:1009E000009901390091009951B1009901390091A4
:1009F000009929B100990139009100990029EAD1A3
:100A0000002180F83C10002001B070BDB0B5006836
:100A100042F20004C4F20104A04229D140F2700560
:100A2000C2F200052878002818BFB0BD281D00F0CC
:100A300023F869884A1C93B26A8040F2BC02C2F271
:100A40000002B3F5007F22F8110011D301202870B5
:100A500000206A68688050684FF4807120F020039D
:100A600004F568405360BDE8B04000F0DFBC00BF53
:100A7000B0BD0000704700000068C06C7047000007
:100A800070B50446006806684568B10717D515F0CB
:100A9000200114D0216CC90603D4216C41F40071EB
:100AA0002164816811F0405F02D1217E002969D064
:100AB0002046FFF7ABFF20686FF01201016071075D
:100AC00014D515F0800111D0216CC90603D4216C16
:100AD00041F400512164816811F4401F30D0204658
:100AE000FFF7F4FE20686FF00C010160F10706D0FB
:100AF00015F040011CBF01685FEAC17112D1B10657
:100B00000FD515F0806108BF70BD616C6FF02005D6
:100B100041F00201616405602046FFF7ABFF2068E9
:100B2000056070BD206C40F480302064204600F0E9
:100B3000F1F820686FF001010160B106E1D4F0E73F
:100B4000816B11F4401F02D081684905C7D4416808
:100B50004905C4D4816811F0405FC0D1217E0029CD
:100B6000BDD1416821F080014160206C20F48050AB
:100B70002064206CC005B2D4206C40F001002064D9
:100B8000ADE700BFC16A11F4700F03D08168490559
:100B90003FF58EAF416821F020014160206C20F4C8
:100BA00080702064206CC0043FF582AF206C40F060
:100BB000010020647CE70000002804BF012070478A
:100BC00010B5016C00293DD0016CC90645D4016CFB
:100BD00041F202129143023142F204320164C4F242
:100BE0000102116821F440311160136890E812107D
:100BF0002343D0F810E013604A68012422F4807285
:100C00004A604A68C0F6007442EA0E224A604A68A6
:100C100022F040724A604A6842EA0C024A608A68DE
:100C200022F400628A60C2688B681A438A60826A12
:100C30008B68A24223F070638B608B6810D123F025
:100C4000405216E0044600F067F820460021616437
:100C500084F83C10016CC906B9D5012153E000BFEE
:100C60001A438A608A6822F040528A60C26A8B689E
:100C70001A438A608A6822F002028A608A68037EC8
:100C800090F8204042EA43028A604A6884B142F404
:100C900000624A604A684EF2000322F460424A60F1
:100CA000426ACFF6FF734C6803EB4232224301E005
:100CB00022F400624A60CA6A40F2000C22F4700218
:100CC000CA62C3694269CFF6F07CCC6A0CEB03536D
:100CD0002343CB628B6823F400738B6090F8303031
:100CE0008C6844EA43238B608B6823F480638B60B9
:100CF0008B6843EA82228A6000214164026C0123EE
:100D000063F301020264002280F83C20BDE8104039
:100D1000084670477047000070B586B0044642F23E
:100D200000002168C4F20100002681420596CDE949
:100D300003660296019601D006B070BD43F63001FD
:100D40000096C4F202014A6900F5604042F48072E4
:100D50004A614A6902F480720092009A00960A6819
:100D600042F001020A60096801F001010091009956
:100D7000012101910321CDE9021601A900F086FAB3
:100D800040F2BC4546F21040C2F20005C4F2020037
:100D90004FF480614FF40062C5E9000605F11000D0
:100DA0004FF480434FF4807C80E80E104FF4003005
:100DB00005F12002042143C22846C5E90266C5E9BF
:100DC0000B6600F09DF9002818BFFFF77BFD12208D
:100DD00000210022A563AC6300F0C4FF122000F0E4
:100DE000AFFF06B070BD000080B581B0002100915A
:100DF00090F83C10012903D1022001B080BD00BF52
:100E0000D0F800E0012180F83C10714651F8083F0D
:100E1000DB072AD10B684DF6836243F001030B60B8
:100E200040F20803C2F200031B68C4F21B32A3FBAA
:100E300002239A0C02EB42020092009AAAB100BF70
:100E4000009A013A0092009A7AB1009A013A00920F
:100E5000009A52B1009A013A0092009A2AB1009A7F
:100E6000013A0092009A002AEAD10A68036CD2077C
:100E70000CD143F01001016400F1440101200A6823
:100E800010430860002001B080BD00BF40F2017235
:100E900023EA020202F580720264DEF804205205A1
:100EA00004D5026C012363F30D320264026C4FF02F
:100EB000000C0023D20444BF426C22F006034364BA
:100EC00080F83CC06FF02200CEF80000DEF804206D
:100ED00042F2000042F0806242F02002C4F20100BF
:100EE000CEF80420D0F80423D20609D086450BD1D1
:100EF000806810F0405F07D14FF08040BFE700BF2F
:100F0000086810F0405FF7D0002001B080BD0000FD
:100F100090F83510022909D1052180F835100068B4
:100F2000016821F0010101600020704780214165C6
:100F30000120704790F8350070470000F0B581B08F
:100F40000021009140F20801C2F200010B68D0E9D3
:100F5000166148F2B51537680822C1F64E358A4049
:100F60003A42A3FB05350CD003681C68640708D51A
:100F70001C6824F004041C60B260426D42F001025F
:100F8000426501228A403A4208D003685B691B0629
:100F900004D5B260426D42F00202426504228A40EA
:100FA0003A4208D003681B689B0704D5B260426DC3
:100FB00042F00402426510228A403A4219D0016888
:100FC0000B681B0715D5B2600B680A685B0309D470
:100FD000D20509D40A6822F008020A60016C29B916
:100FE00007E000BF110341D4016C11B104468847EA
:100FF0002046C26D202101FA02F33B4243D0016832
:101000000F68FF063FD5B36090F835700B68052F69
:101010001CD123F016030B604B6923F080034B6156
:10102000036C0BB9836C1BB10B6823F008030B60D6
:101030003F219140B160012180F83510016D0022FF
:10104000002980F8342054D158E000BF0A685B03BF
:1010500010D4D20512D40A6822F010020A600121CD
:1010600080F83510002180F8341007E0816C0029E9
:10107000BCD1BEE7110301D4416C00E0C16B11B1DA
:10108000044688472046416DC1B3416DC9072ED043
:10109000052180F835100168AA0A0B6823F00103C6
:1010A0000B60009B0133934200931AD80B68DB0757
:1010B00017D0009B01339342009312D80B68DB07D3
:1010C0000FD0009B0133934200930AD80B68DB07D3
:1010D00007D0009B01339342009302D80B68DB07D3
:1010E000DFD1012180F83510002180F83410C16C67
:1010F00021B101B0BDE8F040084700BF01B0F0BD2C
:101100002DE9F041044600F09FF9ECB105460220BC
:1011100084F835000020216884F83400086820F045
:101120000100086021680868C00711D000F08CF940
:10113000401B0528F6D9032520230320636584F886
:101140003550BDE8F08100BF0120BDE8F08100BF4F
:10115000086848F23F02CFF21002D4E9013500EAF4
:10116000020C04F10C0898E8C10143EA0C032B437C
:101170001843D4E9072E304338431043626A40EAEB
:101180000E00042A40EA08031CD1206BD4E90A2E81
:1011900040EA0E00184308604869BEF1000F20F0D5
:1011A000030040EA020040F0040C11D0B8F5005FE3
:1011B00036D0B8F1000F45D1022A46D0012A3BD0E3
:1011C00032B942E00B60486920F0070040EA020CA7
:1011D00001F0F8004AF6AB221038CAF6AA22A0FBAA
:1011E00002231A0944F2B953C1F814C0C0F600032F
:1011F0009A5C40F2FF335F284FF03F0021EA030181
:1012000000FA02F088BF0431C4E916128860002396
:1012100001250020636584F83550BDE8F08100BFEA
:10122000032AD5D8012540230120DFE802F0030E70
:10123000030500BF82E700BFAEF1C070B0FA80F0D6
:10124000400904E0032A04D3C2D1CEF30060002891
:10125000BED0012540230120636584F83550BDE8E8
:10126000F0810000B0B5044600F0EEF8054640F20B
:101270000000C2F200000078611C18BF044400BFE7
:1012800000F0E2F8401BA042FAD3B0BD2DE9F04FC8
:1012900083B000F1200200F13E4741F200050092C8
:1012A00007F1FF77C4F2020507224FEAB726A842EA
:1012B00008BF042200254FF000084FF00009042E5B
:1012C00038BF4FEAB72201920AE000BF09F10109D5
:1012D00008F10208B9F1100F05F1040500F0A28031
:1012E0000F68012202FA09FE17EA0E0AEED0D1F8C1
:1012F00004C003220CF003077E1E02FA08F4012E3C
:101300006FEA040B12D88468CE6804EA0B0406FA6C
:1013100008F634438460446824EA0E06CCF30014D3
:1013200004FA09F42643466004E000BF032F01D10C
:1013300003271EE0C6688C6806EA0B0604FA08F468
:101340002643022FC66014D16FF00302009E02EA0A
:10135000590756F807C005F01C040F220B69A2407C
:101360002CEA0202A3401A43F251D1F804C00CF057
:101370000307026807FA08F302EA0B021A431CF497
:10138000403F0260A2D0002243F644030292C4F21E
:1013900002031A6843F6004442F480421A601A6855
:1013A000C4F2010402F480420292029A29F003027C
:1013B0004FF6084C2244CFF6FF7C52F80C3005F073
:1013C0000C070F26BE40B343019E06FA07F73B43C6
:1013D00042F80C30A2684B6842EA0A0743F60C4C0C
:1013E000DE0258BF22EA0A07A760C4F2010CDCF84B
:1013F00000209E0242EA0A0758BF22EA0A07CCF8F8
:10140000007062689E0342EA0A0758BF22EA0A0790
:1014100067602268DB0342EA0A0758BF22EA0A072C
:10142000276053E703B0BDE8F08F0000426902EA8D
:101430000103914341EA034181617047002A08BFDB
:10144000090481617047000040F6F800C2F2000014
:10145000006870477047000070470000F0B581B029
:1014600007687968C26A90F83E5090F83DE0402DD8
:1014700001D0102D34D1BB697C69E60718D1B2F1D7
:101480002A4F00F06B82B2F52A0F00F06782220724
:1014900001F4007240F10681002A00F00381416BE3
:1014A000426C0029D2B23A6140F0B080B0E000BF97
:1014B0008A0543D44FF0010C7A685B076ED412059D
:1014C00000F14C8204F04402402A40F0598111F4AA
:1014D000806100F0558101B0BDE8F04001F02EBC04
:1014E000026C01F40073002A0CBFBC6900247D6902
:1014F000AA0729D543B3016C002918BFBC6990F82D
:101500003D1001F02801282940F0C08079680122AF
:1015100021F48061796004F0040182EA91012206DD
:101520004FF0180258BF0C22825A002380F83C303A
:1015300001B0BDE8F040FFF78FBF00BFC16AB1F551
:101540002A0F3DD1012140E0EA066FD5002B6DD076
:1015500090F83D50796821F4E061796000210091B4
:1015600079690091396841F0010139600099396861
:1015700021F4806139607968090540F17D8105F0C9
:10158000F7010446222940F04D8154F8381F0A68BB
:10159000526824F80E2C34F80E2C4BE1120500F1A1
:1015A000DD8104F08402802A40F0FA8011F4806129
:1015B00000F0F68001B0BDE8F04001F0A1BC00BF32
:1015C000C16AB1F12A4F01D10821C16290F83E10E1
:1015D00040290BD1016D406C002900F0FE0018BFBE
:1015E00040F00100386101B0F0BD00BF0169B1F504
:1015F000804F40F0898090F83D10426C212902F024
:10160000FE0218BF01323A61416B09B1C96B39B9A9
:10161000806B002800F0A281C06B002800F09E8142
:10162000786840F40060786001B0F0BD0EF0F70219
:10163000212A79D105F08402802A40F0C58011F476
:10164000806100F0C18090F83D10428D002A00F0CA
:101650008581426A12F8013B3B614262428D013A48
:101660004285428D002A08BF292940F07781796898
:1016700021F48061796021210163282180F83D10E7
:1016800001B0BDE8F04000F0EFBA00BF00210091CA
:101690007A690092BA690092009A80F83C1001B011
:1016A000F0BD00BF4FF0010CA6078CEA522C7FF56D
:1016B00003AF002A3FF400AF90F83E20C16A036BED
:1016C00090F83D60222E40F0A380066D002E08BFEA
:1016D000402A00F09D80026D002A40F0418102699D
:1016E000B2F5404F40F03C810021009179690091B2
:1016F000B96900910099396841F480713960016DD0
:101700000131016501B0F0BD016D002900F00481D7
:10171000016D012940F02281406C062101EAD010C0
:10172000F130386101B0F0BD05F04402402A5BD1D0
:1017300011F4806158D090F83D10428D002A00F0DD
:101740000D813A69436A1A70426A01324262428DDF
:10175000013A4285428D002A08BF2A2940F0FE80C6
:1017600001684A6822F480624A60222101632821CC
:1017700080F83D1001B0BDE8F04000F073BA00BF42
:1017800004F00401012282EA910141EA0C01C90737
:1017900040F0E48001B0BDE8F04001F053BA00BF72
:1017A00004F00401012282EA910141EA0C01C90717
:1017B00040F0D480BEF1210F40F0C88001B0BDE8F8
:1017C000F04001F05BBB00BF690740F1C780002B10
:1017D00000F0C480418D002900F0C080416A11F8FA
:1017E000012B3A610FE000BF690740F1B780002B81
:1017F00000F0B480418D002900F0B0803969426A60
:101800001170416A01314162418D01394185A5E084
:101810000020009078690090B8690090009801B0AD
:10182000F0BD00BF54F8341F0A68526824F80A2C2F
:1018300034F80A2C1AB1026C42F0040202647A688D
:10184000064622F4006208467A60FFF773FB014601
:101850003046012910D0206842F69911C0F60001E7
:101860000165FFF755FB0146304629B12168044662
:101870000A6D084690472046418D61B101684A696A
:1018800052072FD44A69520639D4418D19B1016CDF
:1018900041F004010164016C21B101B0BDE8F040E8
:1018A00001F00AB92A2D08D100210163282180F80E
:1018B0003D10044600F0D6F9204690F83D10282946
:1018C00032D10021CFF6FF71C162002120220163D5
:1018D00080F83D2080F83E1001B0BDE8F04000F0F7
:1018E00073B900BF0969426A1170426A0168013226
:1018F0004262428D013A42854A695206C5D509695C
:10190000426A1170416A01314162418D013941855C
:10191000418D0029BBD1BEE7406C062101EAD01001
:10192000F030386101B0F0BD016B222918BF222DC3
:1019300014D100212022016380F83D2080F83E1060
:1019400001B0BDE8F04000F08DB900BF402D05D1D9
:1019500001B0BDE8F04001F02DBB00BF01B0F0BD0B
:10196000428D52B1428D012A16D1202918BF082973
:1019700026D1396821F480613960002100917969AC
:101980000091B96900910099396841F4007139609A
:101990000021016501B0F0BD428D022A0CD1102951
:1019A00032D8012214238A40C0F201031A422BD0FC
:1019B0004FF480622EE000BF3A6842F480622BE070
:1019C00011F5803F0CD1396821F480613960796864
:1019D0000905D2D5396821F48061396030E000BF53
:1019E000122B01D10129C4D11029F3D8012202FA06
:1019F00001F11422C0F201021142EBD0396841F426
:101A0000806139601CE000BF3A6822F480623A606D
:101A10004FF400623B681A433A607A6812050FD5AA
:101A20004A1E1F2A18D8012303FA02F248F2810342
:101A3000C8F200031A420FD0796841F480517960EE
:101A40000021009179690091B96900910099002104
:101A5000016501B0F0BD00BF11F5803FECD0EFE7AC
:101A600070470000002804BF01207047F0B581B026
:101A7000044690F83D0028B9002084F83C00204638
:101A800000F0ACF8242084F83D002068016821F0C3
:101A900001010160016841F400410160016821F425
:101AA0000041016000F052FA636848F2A16CC0F294
:101AB000010C40F60011C0F23D0163453CBF48F205
:101AC0008041C0F21E01884202D2012001B0F0BD67
:101AD0004DF68361C4F21B31A0FB01122168970C03
:101AE000D1F804E04FF496762EF03F0545EA924592
:101AF0004D60774348F638160D6AC0F24106A7FBE1
:101B0000067625F03F07634538BF960C721C3A43B2
:101B10000A62CA6948F2A0664CF6FF77C0F2010675
:101B2000B34222EA07020BD801385B00B0FBF3F0A6
:101B300001306FF31F30042898BF04201BE000BF62
:101B4000A768013857B119277B43B0FBF3F0013088
:101B50006FF31F3070B100F5804007E003EB4303E3
:101B6000B0FBF3F001306FF31F3018B100F5004007
:101B700001E000BF01201043C8610868D4E90723D1
:101B800020F0C000104318430860886848F2FF3214
:101B900004F10C0790438CCF18431043A66988606A
:101BA000C86820F0FF0038433043C860086840F040
:101BB0000100086000202021206484F83D1020638B
:101BC00084F83E0001B0F0BD70470000704700008F
:101BD000704700007047000070470000B0B586B045
:101BE00045F200410068C4F20001002488420594D7
:101BF000CDE903440294019402D006B0B0BD00BF09
:101C000043F630050094C4F20205286840F0020053
:101C10002860286800F0020000900098C020019021
:101C200012200290012003900320049004200590CC
:101C300001F5D83001A9FFF729FB0094286900219C
:101C400040F4001028612869002200F40010009080
:101C500000981F2000F086F81F2000F071F806B0F1
:101C6000B0BD0000704700007047000040F2000067
:101C700040F6F801C2F20000C2F2000100780A68E2
:101C8000104408607047000080B543F60040C4F27D
:101C90000200016841F400710160016841F4806153
:101CA0000160016841F480710160032000F086F852
:101CB000002000F005F800F027F8002080BD0000AB
:101CC00070B540F20006C2F2000640F20801327818
:101CD000C2F200014FF47A730968B3FBF2F20446D2
:101CE000B1FBF2F1084600F067FB0F2C4FF0010545
:101CF00008D838B94FF0FF3021460022002500F007
:101D000031F87460284670BD82B0002043F640016F
:101D10000190C4F202014A6842F480424A604A6873
:101D200002F480420192019A0090086840F08050CD
:101D30000860086800F080500090009802B070477A
:101D4000002848BF704700F01F01012202FA01F18C
:101D50001C2202EAD0004EF20012CEF200028150A4
:101D60007047000010B54EF60C5CCEF2000CDCF8AB
:101D70000030C3F3022E8EF00704042C28BF042485
:101D8000BEF103034FF0FF3E0EFA04F438BF002308
:101D9000A14399400EFA03F39A43114300F00F0256
:101DA00000F160430901043A03F5644362440028EA
:101DB00048BF02F10C03197010BD00004EF60C5123
:101DC000CEF200010A684FF6FF031A4060F30A22C0
:101DD00042F0806040F0FD7008607047002804BF4A
:101DE000012070472DE9F04143F60808C4F20208CB
:101DF0000446D8F8F8030D4600F00700814207D9E1
:101E000088F8F853D8F8F80300F00700A84277D113
:101E10002068810717D5410705D5D8F8001041F48F
:101E2000E051C8F80010010705D5D8F8001041F4BA
:101E30006041C8F80010D8F80010A26821F0F00145
:101E40001143C8F80010C00740D1D8F8F80300F0DB
:101E50000700854207D288F8F853D8F8F80300F055
:101E60000700A8424CD12068410707D5D8F80010D8
:101E7000E26821F4E0511143C8F80010000708D5CA
:101E8000D8F80000216920F4604040EAC100C8F899
:101E9000000000F083F8D8F8001044F2A152C1F31A
:101EA0000311C0F60002515C40F2080220FA01F171
:101EB00040F20400C2F200000068C2F200021160A9
:101EC000FFF7FEFE0020BDE8F08100BF6068811EC4
:101ED000022907D258F8081C89015CBF0120BDE81F
:101EE000F08111E0012807D158F8081C89035CBF74
:101EF0000120BDE8F08107E058F8081C890703D4E9
:101F00000120BDE8F08100BFD8F8001021F00301E6
:101F10000843C8F80000FFF797FA064641F28837F1
:101F2000D8F80000616800F00C00B0EB810F8CD095
:101F3000FFF78AFA801BB842F2D90320BDE8F0818E
:101F400040F20800C2F200000068704740F208004A
:101F500043F60801C2F20000C4F2020100680968F9
:101F600044F2B152C1F38221C0F60002515CC84074
:101F70007047000040F2080043F60801C2F200007A
:101F8000C4F202010068096844F2B152C1F342315F
:101F9000C0F60002515CC8407047000010B543F61F
:101FA0000404C4F202046168C1F3810142F20040FA
:101FB000C0F2F400DFE801F002040A0210BD00BF25
:101FC00041F20020C0F27A0010BD00BF216801F08C
:101FD0003F02216823684902C3F3881106D4A1FB9C
:101FE00000010023FEF764F907E000BF41F2002082
:101FF000C0F27A004843B0FBF2F021680222C1F33C
:10200000014102EB4101B0FBF1F010BD002804BF1B
:10201000012070472DE9F04182B00446007843F674
:102020000006C007C4F202060CD0B06800F00C0035
:10203000042840F081803068800303D56068002860
:1020400000F06881207880071BD5B06810F00C0F75
:1020500009D0B06800F00C00082840F08780706854
:10206000400200F183803068800703D5E0680128D2
:1020700040F050813068216920F0F80040EAC1004A
:1020800030602078000713D4207840072AD4A5694F
:10209000002D00F03A81B06800F00C00082840F0F4
:1020A000A580012D40F00E81012002B0BDE8F08135
:1020B0006069002800F082800020C4F247200121DE
:1020C000C0F8801EFFF7C0F9054600BF706F80079B
:1020D000DAD4FFF7B9F9401B0228F7D9032002B080
:1020E000BDE8F081306C5FEAC0080AD4002001909E
:1020F000306C40F080503064306C00F080500190C3
:10210000019847F20007C4F200073868C00547D4B9
:10211000386840F480703860FFF796F9054600BFD4
:102120003868C0053CD4FFF78FF9401B0228F7D967
:10213000032002B0BDE8F081B06800F00C00082870
:1021400003D1706840023FF576AF61683068B1F541
:10215000803F07D0B1F5A02F40F09A8040F4802056
:102160003060306840F4803030609AE0E0680028E9
:1021700040F20000C4F247205CD001210160FFF76B
:1021800063F90546306880073FF574AFFFF75CF9E7
:10219000401B0228F6D9032002B0BDE8F08100BF41
:1021A000A168306F012905D0052955D140F0040000
:1021B0003067306F40F00100306756E00020C4F215
:1021C00047200021C0F8801EFFF73EF9054600BFFA
:1021D000706F80077FF558AFFFF736F9401B022874
:1021E000F6D9032002B0BDE8F08100BF0027C4F299
:1021F000472700203866FFF727F9022D05460DD145
:102200003068800140F18A80FFF71EF9401B0228E8
:102210004FF00300F4D902B0BDE8F08130688001CE
:1022200073D5FFF711F9401B02284FF00300F5D9D1
:10223000F1E700BF00210160FFF706F9054600BF86
:10224000306880077FF51DAFFFF7FEF8401B0228BE
:102250004FF00300F4D9DEE720F001003067306F63
:10226000002920F0040030677AD0FFF7EDF805462A
:1022700041F28837306F800700F18480FFF7E4F87F
:10228000401BB842F6D9032002B0BDE8F08100BF80
:1022900020F4803030603068002920F480203060E5
:1022A0007AD0FFF7D1F80546306880033FF5CAAE13
:1022B000FFF7CAF8401B6428F6D9032002B0BDE836
:1022C000F08100BF7068E16900F480028A4221D188
:1022D000216A00F03F028A421CD147F6C071626A4F
:1022E0000140B1EB821F15D1A16A4FF6FF73C903FC
:1022F000994300F44032A1F580318A420AD1E16A63
:1023000000F07060B0EB016F04D1002002B0BDE8B6
:10231000F08100BF012002B0BDE8F08104F11C058E
:102320002FCD084340EA8210D9034FF6FF72914344
:10233000A1F5803140EA05600843706001203866ED
:10234000FFF782F8044600BF30688001DDD4FFF754
:102350007BF8001B02284FF00300F5D95BE700BFB4
:10236000FFF772F8054641F2883700BF306F8007EB
:1023700008D5FFF769F8401BB8424FF00300F5D9C4
:1023800049E700BFB8F1000F3FF581AE306C20F097
:10239000805030647BE600BFFFF756F8054600BF6B
:1023A000306880037FF54EAEFFF74EF8401B64287F
:1023B0004FF00300F4D92EE7411E0020B0EB116F5F
:1023C0001CBF012070474EF21002CEF20002516095
:1023D0004EF62351CEF20001F0230B7007219060DE
:1023E0001160704790F83C20012A4FF0020241D062
:1023F00010B580F83D200268D2F804E0D2F808C099
:102400000C682EF07003234340F6FF34C4F200043E
:10241000A242536010DCB2F1804F1ED040F2004364
:10242000C4F200039A4218D040F60003C4F200033D
:102430009A4212D016E000BF40F60043C4F20003F7
:102440009A420AD044F20003C4F201039A4204D033
:102450000023C4F201039A4204D149682CF080039E
:10246000194391600121002280F83D1080F83C2042
:10247000BDE8104010467047002804BF0120704797
:1024800010B5044690F83D0028B9002084F83C00BF
:10249000204600F01FF8022084F83D002068211D2E
:1024A00000F04EFE012084F8460084F83E0084F8D7
:1024B0003F0084F8400084F8410084F8420084F82A
:1024C000430084F8440084F8450084F83D0000206F
:1024D00010BD00000068B0F1804F18BF704781B098
:1024E0000020009043F64000C4F20200016841F071
:1024F00001010160006800F001000090009801B047
:102500007047000090F83D1001291CBF0120704762
:10251000022180F83D10006840F6FF31C4F200014E
:1025200088420FDCB0F1804F1DD040F20041C4F270
:102530000001884217D040F60001C4F20001884231
:1025400011D017E040F60041C4F2000188420AD0E1
:1025500044F20001C4F20101884204D00021C4F217
:102560000101884206D1816801F00701062904BFF4
:1025700000207047016841F00101016000207047B0
:1025800090F83C20012A4FF002026CD080B580F810
:102590003D20D0F800C04FF67772DCF8083023EA0F
:1025A0000202CCF808200B684F2B29DC1F2B45DDDD
:1025B000202B46D0302B44D0402B40F0AF80D1F8B8
:1025C00004E0C968DCF82030DCF8202022F00102A9
:1025D000CCF82020DCF8182022F0F00242EA0111A9
:1025E00023F00A0242EA0E02CCF81810CCF82020A0
:1025F000DCF8081041F0470121F0300128E000BF6D
:102600006F2B33DDB3F5005F74D0B3F5805F21D05D
:10261000702B40F08380D1E901E3C968DCF8082021
:1026200043EA0E0322F47F4243EA01211143CCF82E
:102630000810DCF8081041F0770109E00BB1102B0D
:102640006CD1DCF8081021F07001194341F007014A
:10265000CCF808100022012180F83D10002180F8FC
:102660003C10BDE880401046704700BF502B21D081
:10267000602B53D1D1F804E0C968DCF82030DCF8D5
:10268000202022F01002CCF82020DCF8182022F4C0
:10269000704242EA013123F0A00242EA0E12CCF865
:1026A0001810CCF82020DCF8081041F0670121F068
:1026B0001001CDE7D1F804E0C968DCF82030DCF87F
:1026C000202022F00102CCF82020DCF8182022F093
:1026D000F00242EA011123F00A0242EA0E02CCF8AB
:1026E0001810CCF82020DCF8081041F0570121F038
:1026F0002001ADE7D1E901E3C968DCF8082043EA2D
:102700000E0322F47F4243EA01211143CCF8081062
:10271000DCF8081041F480419AE700BF01229AE7F3
:10272000002804BF0120704710B5044690F841000E
:1027300028B9002084F84000204600F021F8242029
:1027400084F841002068C16821F40051C16020462E
:1027500000F072FD2068016921F490410161416936
:1027600021F02A014161C16841F40051C16000209B
:102770002021606484F8411084F84210606310BD29
:1027800080B586B044F200410068C4F20001002226
:1027900088420592CDE903220292019202D006B04E
:1027A00080BD00BF43F630000092C4F2020003690E
:1027B00043F400330361036903F400330093009B87
:1027C0000092036843F001030360006800F0010019
:1027D000009000980C2001900220CDE90202032015
:1027E00004900720059001F5DE3001A9FEF74EFDAB
:1027F00006B080BD2DE9F04381B0044690F8410059
:10280000202809D100294FF0010018BF002A07D164
:1028100001B0BDE8F08300BF022001B0BDE8F08345
:102820000020606421201D460E4684F841001746B2
:10283000FEF70AFEA784E784A1688146B1F5805FB0
:1028400002D1206900285DD037460020E28C216843
:10285000002A5DD06A1C24D0002D4AD0804600BFDB
:102860000868000608D4FEF7EFFDA0EB0900A842B7
:102870007AD82168C868F3E717B117F8010B04E0AC
:1028800038F8020B00276FF35F204860E08C0138B6
:10289000E084E08C0028E3D13AE000BF0A68120629
:1028A00009D40A68120606D40A6812065CBF0A68D0
:1028B0005FEA0262F2D51FB117F8012B05E000BFF5
:1028C00030F8022B00276FF35F224A60E28C013A56
:1028D000E284E28C002AE4D11AE000BF30F8022B37
:1028E00000276FF35F224A60E28C013AE284E28CB7
:1028F00072B10A68120635D5002FEFD017F8012BF8
:10290000F1E700BF00273046E28C2168002AA1D100
:10291000086840061ED42DB3681C14D10868400610
:102920002AD40868400627D40868400624D40868DA
:1029300040064FF00000F1D50DE000BF2068C168EF
:102940000068400618D4FEF77FFDA0EB0900A842FE
:10295000F4D909E00020202184F8411001B0BDE83D
:10296000F08300BFFEF770FD0320202184F84110A2
:1029700001B0BDE8F08300BF0020202184F84110A1
:1029800001B0BDE8F0830000FEE7000040F21C50FB
:10299000C2F20000FEF762BD10B581B000210091C7
:1029A000806B40F20801C2F2000190F83DC0096856
:1029B0004BF28952C908C1F2F842A1FB0212110A76
:1029C000232251430091009901B3009901390091EC
:1029D0000268116889051DD50099B9B100990139BE
:1029E00000911168890515D5009979B100990139CF
:1029F0000091116889050DD5009939B10099013907
:102A0000009111688905DED404E000BF016C41F03B
:102A100020010164446B4FF0000E002C1CBF00210C
:102A2000E163816B00291CBF0022CA630268002C8D
:102A3000136823F480631360A0F82AE018BFC4F879
:102A400050E000291CBF00230B65116821F0010133
:102A5000116090F83D1060290CD1202180F83D10C4
:102A6000002180F83E10016401B0BDE81040FEF77F
:102A7000F1BC00BF0CF02801282911D1116841F0E8
:102A800001011160116841F480611160002101634E
:102A9000282180F83D1001B0BDE81040FEF7E0BFEE
:102AA000202180F83D10002180F83E1001B0BDE8E3
:102AB0001040FEF7D5BF000010B5044690F83D1059
:102AC00090F83E00B0F1100218BF0122403818BF44
:102AD0000120024208BF222934D001F02800282812
:102AE0003AD100202063282084F83D002068416806
:102AF000090542D5416821F400614160606B90F89E
:102B00003510012958D1A06B42F69911C0F6000189
:102B10000165FEF7FDF9002861D02068416949068A
:102B200006D50069616A0870616A206801316162D6
:102B3000016821F001010160202084F83D00A06BB4
:102B40004BE000BF2068026822F400620260426825
:102B5000120505D50CE000BF20684268120507D4B5
:102B6000602905D0202184F83D10002184F83E1012
:102B70000021216341680905BCD494F83D10602907
:102B800050D1202184F83D1000212164416949067B
:102B900006D50069616A0870616A20680131616266
:102BA000016821F0010101602046FEF753FC206C12
:102BB000000717D11BE000BF42F69911C0F60001D3
:102BC0000165FEF7A5F950B12168606B0A6822F033
:102BD00001020A60202184F83D10016D8847206CB5
:102BE000000704D02068416821F4E061416094F856
:102BF0003D00216C490758BF10BD282810D1002086
:102C0000CFF6FF70E06200212020216384F83D00B0
:102C1000204684F83E10BDE81040FEF7D5BF00BF47
:102C200010BD00BF4169490605D50069616A087099
:102C3000606A013060622046FEF712FF206C0007D8
:102C4000D0D1D4E7C16A428D042A07D10168426A13
:102C50004B6823F480634B60096911E0428D032ABD
:102C600016D102680229536823F48063536005D0AB
:102C7000042903D0116821F4806111601169426A4E
:102C80001170416A01314162418D013941857047BE
:102C9000428D022A12D14A1E0F2A19D8DFE802F00B
:102CA00008121812181818181818181818181808D0
:102CB0000268136823F480630EE000BF0168426A73
:102CC000CAE700BF0268136843F4806304E000BFF2
:102CD0000268136843F4007313601269436A1A7040
:102CE000426AD0F800C0531C4362438D013B4385C8
:102CF000DCF810305370426A036801324262428D40
:102D0000013A42855A6822F440725A60202280F8C3
:102D10003D2090F83E300022402B80F83E2003D129
:102D20000263FEF757BF00BFB1F1080218BF1222BD
:102D3000203918BF11460163FEF748BF81B090F8F3
:102D40003D10222910D1C16A428D042A0ED3016898
:102D5000426A09691170416A01314162418D01394C
:102D60004185418D032959D001B07047C36A012ABA
:102D700054D8022B52D00022009240F20802C2F234
:102D8000000212684BF28953D208C1F2F843A2FB49
:102D900003231A0A02EB82020092009A013A00927F
:102DA000009A002A42D0026813689B0517D5009B41
:102DB000013B0093009BCBB313689B050FD5009B91
:102DC000013B0093009B8BB313689B0507D5009BC9
:102DD000013B0093009B4BB313689B05DDD4136844
:102DE00023F480631360536823F4E0635360126933
:102DF000436A1A70426A01324262428D013A428548
:102E0000202280F83D2090F83E300022402B80F8B0
:102E10003E2027D1026301B0FEF7DCBE00684168A6
:102E200021F48061416001B0704700BF016C41F046
:102E3000200101640168426A4B6823F4E0634B603F
:102E400009691170416A01314162418D0139418541
:102E5000202180F83D10002180F83E1001B0FEF7DF
:102E6000FFBD00BFB1F1080218BF1222203918BF00
:102E70001146016301B0FEF7A9BE0000C16A90F8D7
:102E80003D20212A18BF7047428D4AB1416A02682D
:102E900011F8013B13614162418D01394185704751
:102EA00011F5803F18BF082918D101684A6822F43B
:102EB000E0624A600A6842F400720A60002120223F
:102EC000016380F83D2090F83E2080F83E10402AB3
:102ED00008BFFEF781BEFEF77BBE00BF2029E4D00D
:102EE00001684A6822F4E0624A601121016300210E
:102EF00080F83E10202180F83D10FEF769BE0000EA
:102F000090F83D1090F83EC0C26A038D002B08BFB8
:102F1000212919D0212905D0BCF1400F08BF222951
:102F200000D07047418D69B390F83E10402908BF2A
:102F300000F040B8416A026811F8013B1361416238
:102F4000418D01394185704712F5803F18BF082A2D
:102F50001ED101684A6822F4E0624A600A6842F4BD
:102F600000720A6000212022016380F83D2090F861
:102F70003E2080F83E10402A08BFFEF72DBEFEF727
:102F800027BE00BF0068416821F48061416070473E
:102F9000202ADED001684A6822F4E0624A601121EA
:102FA0000163002180F83E10202180F83D10FEF7DB
:102FB0000FBE000090F83D10026D5AB1026D012A5B
:102FC00014D10168826CD2B20A61016D01310165D0
:102FD000704700BFC26C816C012A15D10268C9B26A
:102FE0001161016D02310165704700BF026D022A57
:102FF00012D1222918D101680A6842F480720A604D
:10300000016D0131016570470268C1F3072111614B
:10301000016D01310165704700684169090644BFCF
:1030200000210161704700BF428D5AB1212909D1A9
:10303000416A026811F8013B13614162418D013917
:1030400041857047428D002A08BF2129EAD10168D5
:103050004A6822F4E0624A600A6842F400720A6038
:1030600000212022016380F83D2080F83E10FEF709
:10307000B3BD0000FEE70000FEE70000704700005F
:1030800070470000FEF7F2BD70B592B006AC204666
:103090003021FDF714FB002543F640000595CDE9EE
:1030A0000355CDE901550095C4F2020001680226DE
:1030B00041F080510160006800F08050009000985D
:1030C00047F200000095C4F20000016866F38F31FA
:1030D0000160006800F440400090009801200990D1
:1030E00010200A900E904FF4A8700F9004201090BA
:1030F0000720119020460696CDE90C65FEF786FF65
:1031000010B172B6FEE700BF0F20CDE901064FF403
:103110008050CDE9040501A802210395FEF75EFE6B
:1031200010B172B6FEE700BF12B070BD4EF6885007
:10313000CEF20000016841F47001016070470000A8
:10314000B0B540F2FF7E0568C4F2000E40F2000CFC
:103150007045C4F2010C1DDD40F60003C4F200030B
:10316000984220D060451ED040F60043C4F20003D0
:10317000984218D04FF6FF73C4F2000398421DDC4A
:10318000704527DCB0F1804F3CD040F20043C4F2E0
:10319000000335E0B0F1804F05D040F20043C4F2A7
:1031A00000039842E6D14B6825F0700243EA02051D
:1031B0004FF6FF73C4F200039842E1DD44F2FF339F
:1031C000C4F20103984211DC60451BD044F20003B5
:1031D00014E000BF40F60003C4F20003984211D08F
:1031E00040F60043C4F200030AE000BF44F60003C7
:1031F000C4F20103984205D044F20043C4F2010333
:10320000984204D1CB6825F4407243EA02050A686B
:103210008C684B696045C462826202D10969CCF84E
:103220003010026825F0800142F004021943026068
:10323000012242610160B0BDB0B50446006804F1EE
:1032400008030ECB0569194325F440552A43026152
:103250006269E3691143C268194349F20C639A43F6
:103260001143C1604169A26921F4407141F20043F8
:10327000114340F48062C4F201039A42416103D1D8
:10328000FEF778FE02E000BFFEF760FEE1694FF650
:103290009C7563681922C0F6FF75B1F5004FA0FB5D
:1032A00002011FD15A00DB0FFDF702F848F21F514F
:1032B000C5F2EB11A0FB01235A0905F1805302FB73
:1032C0000300322303EBC000A0FB01014FF4F870B0
:1032D00000EA111000EB0210C1F34211084421680A
:1032E0008860B0BD9A009B0FFCF7E2FF48F21F51C7
:1032F000C5F2EB11A0FB01235A0902FB05003223A2
:1033000003EB0010A0FB0101F02000EA511000EBDC
:103310000210C1F34311084421688860B0BD000069
:10332000FEE7000070B540F20044C4F20204054616
:1033300041F2040600F0010220460421CEF200060C
:10334000FEF77CF8C5F3400220464FF48061FEF79B
:1033500075F8C5F3800220464FF40051FEF76EF871
:10336000C5F3C00220464FF48051FEF767F82046AF
:1033700002210122FEF762F8FEF7E2FD4DF68365B9
:10338000C4F21B35A0FB050130686FF0010202EAB0
:10339000514100BF3268121A8A420BD23268121AA7
:1033A0008A4207D23268121A8A4203D23268121A4B
:1033B0008A42EFD3204602210022FEF73FF8FEF7B3
:1033C000BFFDA0FB0501890C30683222514308E0A3
:1033D0003268121A8A4228BF70BD3268121A8A42B5
:1033E00007D23268121A8A4203D23268121A8A420B
:1033F000EED370BDA8B040F20048C4F20208FEF758
:1034000043FCFFF741FE002743F630040D97CDE95A
:103410000B77CDE909772297C4F20204206843F2C2
:10342000074140F0040020602068002200F0040002
:10343000229022982297206843F2074540F08000AE
:103440002060206800F08000229022982297206857
:1034500040F001002060206800F0010022902298D6
:103460002297206840F002002060206800F00200EF
:10347000229022984046FDF7E1FF099509AD4FF0F3
:10348000010940462946CDE90A970C97FDF7FEFE53
:103490004FF4005009904FF4041008F58066CDE910
:1034A0000A0730462946FDF7F1FE4FF48070CDE95A
:1034B000090930462946CDE90B77FDF7E7FE099764
:1034C0002068002140F4800020602068002200F481
:1034D0008000099009983820FEF744FC3820FEF758
:1034E0002FFC40F27004C2F20004A8F564412046AB
:1034F00040F8041F4FF480314FF080524FF0C0630A
:103500000C97077680F82070C0E90A32C0F81C904A
:1035100080F83070C0E90117C0E90377C0F8149053
:10352000FDF74AFB10B172B6FEE700BF251D09A9E1
:103530002846CDE909790B97FDF7CAF910B172B6A3
:10354000FEE700BF2020229040F270500021C2F21E
:1035500000004FF0804242F603130C91CDE90A11AE
:103560002391C0E90021C0E9021301618161FEF7E6
:1035700083FF18B172B600BFFEE700BF4FF4805062
:10358000099040F27050C2F2000009A9FEF7F8FF5E
:1035900010B172B6FEE700BF40F27050C2F20000F8
:1035A00022A9FEF71FFF18B172B600BFFEE700BFE9
:1035B00040F2B850A8F5E031C2F2000000240C231C
:1035C0004FF4165280E81600C0E90344C0E9053400
:1035D000C461FFF7A5F818B172B600BFFEE700BFDF
:1035E00040F21C50A8F5D831C2F2000048F2A062A7
:1035F0004FF48043C0F2010280E81600C0E90343A3
:10360000C0E90544C0E90744FEF72CFA10B172B6D0
:10361000FEE700BF40F2B85041F20409C2F20000D8
:103620000FF6E06111224FF0FF33CEF20009FFF7F1
:10363000E1F84EF6FC50CEF20000016841F08071D6
:1036400001600020C9F8000059F8040C40F00100A6
:1036500049F8040C1420FDF705FE40460121002224
:10366000FDF7ECFE404602210022FDF7E7FE0320B5
:10367000FFF758FE0520FDF7F5FD0320FFF752FE8A
:10368000FEF75EFC4DF6836AC4F21B3AA0FB0A010A
:10369000890CD9F8000096225143D9F80020121A5B
:1036A0008A420ED2D9F80020121A8A4209D2D9F8D9
:1036B0000020121A8A4204D2D9F80020121A8A4233
:1036C000EBD30320FFF72EFEFEF73AFCA0FB0A0126
:1036D000890CD9F8000096225143D9F80020121A1B
:1036E0008A420ED2D9F80020121A8A4209D2D9F899
:1036F0000020121A8A4204D2D9F80020121A8A42F3
:10370000EBD30220FFF70EFEFEF71AFCA0FB0A0126
:10371000890CD9F8000096225143D9F80020121ADA
:103720008A420ED2D9F80020121A8A4209D2D9F858
:103730000020121A8A4204D2D9F80020121A8A42B2
:10374000EBD34046012100220026FDF777FE022040
:10375000FFF7E8FD0820FFF7E5FD404601210022C4
:10376000FDF76CFE0020FFF7DDFD0820FFF7DAFD16
:10377000404601210022FDF761FE0020FFF7D2FD47
:103780000120FFF7CFFD0220FDF76CFD404601212F
:103790000022FDF753FE0020FFF7C4FD0620FFF7CF
:1037A000C1FD404601210022FDF748FE0020FFF741
:1037B000B9FD0C20FFF7B6FD404601210022FDF7C0
:1037C0003DFE0020FFF7AEFD0120FFF7ABFD02201C
:1037D000FDF748FD40F27050C2F20000FEF792FE85
:1037E00010B172B6FEE700BF40F27004C2F20004EE
:1037F000284666802670FDF7F7FA18B172B600BF4A
:10380000FEE700BF40F6FC00C2F200000838059059
:1038100040F2006040F2BC05C2F200004FF0000B25
:10382000C2F20005083004903EE000BF48F21F508D
:10383000C5F2EB10A6FB00014B09642003FB1060EE
:1038400009AC00900698089F0190204650210FF681
:10385000F4420297FCF7A4FD40F2BC05C2F2000559
:103860002046FCF70DFF82B240F2B850C2F20000D1
:1038700021464FF0FF33FEF7BDFF40F27004C2F265
:10388000000484F800B0204650F8041F6FF02202B4
:10389000A4F802B00A604A6842F020024A60FDF7CC
:1038A000A3FA002840F02A8620780028FCD0404661
:1038B00001210022FDF7C2FD404604210022FDF750
:1038C000BDFD40464FF480610022FDF7B7FD404644
:1038D0004FF400510022FDF7B1FD40464FF48051F6
:1038E0000022FDF7ABFD404602210122FDF7A6FDB7
:1038F000FEF726FBA0FB0A01D9F800006FF00102D9
:1039000002EA5141D9F80020121A8A420ED2D9F89F
:103910000020121A8A4209D2D9F80020121A8A42CB
:1039200004D2D9F80020121A8A42EBD34046022171
:103930000022FDF783FDFEF703FBA0FB0A01890CC3
:10394000D9F8000032246143D9F80020121A8A42C3
:103950000ED2D9F80020121A8A4209D2D9F80020D2
:10396000121A8A4204D2D9F80020121A8A42EBD3E2
:10397000404604210122FDF761FD40464FF480617D
:103980000022FDF75BFD40464FF400510022FDF799
:1039900055FD40464FF480510022FDF74FFD404653
:1039A00002210122FDF74AFDFEF7CAFAA0FB0A0137
:1039B000D9F800006FF0010202EA5141D9F8002065
:1039C000121A8A420ED2D9F80020121A8A4209D25B
:1039D000D9F80020121A8A4204D2D9F80020121A0B
:1039E0008A42EBD3404602210022FDF727FDFEF775
:1039F000A7FAA0FB0A01890CD9F800006143D9F8A5
:103A00000020121A8A420ED2D9F80020121A8A42D5
:103A100009D2D9F80020121A8A4204D2D9F800201B
:103A2000121A8A42EBD30220FDF71CFC4FF600402D
:103A30000022CFF6FF702918B1F80034B1F80474F1
:103A40001A44B1F8023440301A44B1F806343A440A
:103A5000B1F808741A44B1F80A343A44B1F80C7455
:103A60001A44B1F80E343A44B1F810741A44B1F85B
:103A700012343A44B1F814741A44B1F816343A4482
:103A8000B1F818741A44B1F81A343A44B1F81C74F5
:103A90001A44B1F81E343A44B1F820741A44B1F80B
:103AA00022343A44B1F824741A44B1F826343A4422
:103AB000B1F828741A44B1F82A343A44B1F82C7495
:103AC0001A44B1F82E343A44B1F830741A44B1F8BB
:103AD00032343A44B1F834741A44B1F836343A44C2
:103AE000B1F838741A44B1F83A343A44B1F83C7435
:103AF0001A44B1F83E143A440A449CD1059BA5F1FE
:103B000008004FEA522C00264FF4007200250027CF
:103B100030F8081FA1EB0C0101F30F042146002C23
:103B200048BF614223F8084FB942C8BF0F4604FBA3
:103B300004F17618418845F10005A1EB0C0101F371
:103B40000F042146002C48BF61425C80B94288BF07
:103B50000F4604FB04F17618818845F10005A1EBBE
:103B60000C0101F30F042146002C48BF61429C80E8
:103B7000B94288BF0F4604FB04F17618C18845F1AD
:103B80000005A1EB0C0101F30F042146002C48BFF6
:103B90006142B94288BF0F4604FB04F1761845F133
:103BA0000005043ADC80B3D140F64051192F4FF0A4
:103BB0000000C0F2030138BF0120711A75F1000145
:103BC0004FF0000138BF0121084307902AD046F684
:103BD0004E70C5F22030229046F2697046F64E7162
:103BE000C6F26E10C6F27451239042F26C001D9121
:103BF00042F23A01C2F22000C2F62D51249042F264
:103C000020001E9142F22D01C0F22000C2F22001DC
:103C10002590CDE91F10002008900FF62410069083
:103C200000262DE104984FF43C71FCF748FD40F666
:103C3000FC0117204FF0000C40F2E9134FF0260E64
:103C4000C2F2000112E000BF40F20063C2F20003C2
:103C500003EBC00243F83070089B01300CF1010CFB
:103C6000013B5F280EF1020E566055D0ACF5F372A1
:103C7000032A089304D200270546002628E000BF47
:103C800023F003050027734600260022CC1801EB21
:103C9000420851F812B0D4F808A0E468D8F804102B
:103CA000CBFBCA76C1FBC47640F6FC010432C2F2FB
:103CB0000001954203F10803E8D140F200484DF6B7
:103CC000836A8518C4F20208C4F21B3A4FF0000B55
:103CD00040F2E912A2EB0C0212F00302B4D02C1A4B
:103CE00031F9153031F91440012AC4FB0376ABD009
:103CF0006B1C31F913401B1A31F91330022AC3FB34
:103D00000476A1D0AA1C31F91230121A31F912200E
:103D1000C2FB037698E700BF40F20060C2F20000E9
:103D2000D03000234FF01A0E0026002250E906542E
:103D300050E9047C69427BEB0401A8BF6D42591B2A
:103D400076F1000138BFAEF10302E91A7BEB060100
:103D50004FF0000138BF012100291CBF1D4631462C
:103D60007B427BEB0C03A8BF7F42EB1B71F100038E
:103D700038BFAEF102027B1B7BEB01034FF0000367
:103D800038BF0123002B1CBF2F460B4650E90251C0
:103D90006E427BEB0101A8BF6D42791B73F10001FC
:103DA00038BFAEF10102BEF15E0F25D0E91B7BEBFF
:103DB00003014FF0000138BF0121002918BF194647
:103DC000F0E8083618BF3D465F427BEB0607A8BF08
:103DD0005B42EF1A71F1000738BF72465F1B4FF06C
:103DE00000067BEB010738BF0126002E1CBF2B46C7
:103DF0000E460EF1040E99E743F2005091B2C0F264
:103E00000C0000EB5100B0FBF1F644F2C4540891F1
:103E10004FF0FF3100200022C0F6000404EBC20383
:103E20005F68DB68F51B38BFBD1B8D422CBF0D469C
:103E30001046F11A38BF991BA9422CBF2946501CC5
:103E400002321A2AEAD148F21F51C5F2EB11A6FB41
:103E5000011254F830405309642003FB106722A874
:103E600011210FF2B4620097FCF79AFA089F1DA87F
:103E700011210FF2B862234606940097FCF790FADE
:103E80004046012100223224FDF7D8FA40460421A1
:103E90000022FDF7D3FA40464FF480610022FDF77F
:103EA000CDFA40464FF400510022FDF7C7FA4046D4
:103EB0004FF480510122FDF7C1FA40460221012250
:103EC000FDF7BCFAFEF73CF8A0FB0A01D9F80000A8
:103ED0006FF0010202EA5141D9F80020121A8A4219
:103EE0000ED2D9F80020121A8A4209D2D9F800203D
:103EF000121A8A4204D2D9F80020121A8A42EBD34D
:103F0000404602210022FDF799FAFEF719F8A0FBBE
:103F10000A01890CD9F800006143D9F80020121A6F
:103F20008A420ED2D9F80020121A8A4209D2D9F850
:103F30000020121A8A4204D2D9F80020121A8A42AA
:103F4000EBD3404604210022FDF778FA40464FF4B7
:103F500080610022FDF772FA40464FF400510022C2
:103F6000FDF76CFA40464FF480510022FDF766FAE7
:103F7000404602210122FDF761FAFDF7E1FFA0FBB7
:103F80000A01D9F800006FF0010202EA5141D9F8A4
:103F90000020121A8A420ED2D9F80020121A8A4240
:103FA00009D2D9F80020121A8A4204D2D9F8002086
:103FB000121A8A42EBD3404602210022FDF73EFA54
:103FC000FDF7BEFFA0FB0A01890CD9F80000614390
:103FD000D9F80020121A8A420ED2D9F80020121AFB
:103FE0008A4209D2D9F80020121A8A4204D2D9F89A
:103FF0000020121A8A42EBD39DF88870002F00F03F
:10400000D18022AD05E000BF15F8017F002F00F040
:10401000C980404601210122FDF710FAC7F30012C2
:1040200040460421FCB2FDF709FAC7F340124046AE
:104030004FF48061FDF702FAC7F3801240464FF457
:104040000051FDF7FBF9E20940464FF48051FDF7BE
:10405000F5F9404602210122FDF7F0F9FDF770FF66
:10406000A0FB0A01D9F800006FF0010202EA5141F9
:10407000D9F80020121A8A420ED2D9F80020121A5A
:104080008A4209D2D9F80020121A8A4204D2D9F8F9
:104090000020121A8A42EBD3404602210022FDF78B
:1040A000CDF9FDF74DFFA0FB0A01890CD9F80000FE
:1040B00032246143D9F80020121A8A420ED2D9F86C
:1040C0000020121A8A4209D2D9F80020121A8A4214
:1040D00004D2D9F80020121A8A42EBD307F0010269
:1040E00040460421FDF7AAF9C7F3400240464FF4C9
:1040F0008061FDF7A3F9C7F3800240464FF40051F9
:10410000FDF79CF9C7F3C00240464FF48051FDF71C
:1041100095F9404602210122FDF790F9FDF710FFC5
:10412000A0FB0A01D9F800006FF0010202EA514138
:10413000D9F80020121A8A420ED2D9F80020121A99
:104140008A4209D2D9F80020121A8A4204D2D9F838
:104150000020121A8A42EBD3404602210022FDF7CA
:104160006DF9FDF7EDFEA0FB0A01890CD9F80000FE
:10417000614300BFD9F80020121A8A42BFF444AF4D
:10418000D9F80020121A8A42BFF43EAFD9F80020B5
:10419000121A8A42BFF438AFD9F80020121A8A42A4
:1041A000E8D331E7404601210022FDF747F94046B8
:1041B00004210022FDF742F940464FF480610022BD
:1041C000FDF73CF940464FF400510122FDF736F966
:1041D00040464FF480510122FDF730F9404602215C
:1041E0000122FDF72BF9FDF7ABFEA0FB0A01D9F880
:1041F00000006FF0010202EA5141D9F80020121AC2
:104200008A420ED2D9F80020121A8A4209D2D9F86D
:104210000020121A8A4204D2D9F80020121A8A42C7
:10422000EBD3404602210022FDF708F9FDF788FE96
:10423000A0FB0A01890CD9F800006143D9F80020DD
:10424000121A8A420ED2D9F80020121A8A4209D2D2
:10425000D9F80020121A8A4204D2D9F80020121A82
:104260008A42EBD3404604210022FDF7E7F840469E
:104270004FF480610022FDF7E1F840464FF4005111
:104280000022FDF7DBF840464FF480510022FDF795
:10429000D5F8404602210122FDF7D0F8FDF750FE87
:1042A000A0FB0A01D9F800006FF0010202EA5141B7
:1042B000D9F80020121A8A420ED2D9F80020121A18
:1042C0008A4209D2D9F80020121A8A4204D2D9F8B7
:1042D0000020121A8A42EBD3404602210022FDF749
:1042E000ADF8FDF72DFEA0FB0A01890CD9F80000FE
:1042F0006143D9F80020121A8A420ED2D9F8002060
:10430000121A8A4209D2D9F80020121A8A4204D21B
:10431000D9F80020121A8A42EBD39DF87470002F4E
:1043200000F0D0801DAD04E015F8017F002F00F0F3
:10433000C980404601210122FDF780F8C7F3001231
:1043400040460421FCB2FDF779F8C7F3401240461D
:104350004FF48061FDF772F8C7F3801240464FF4C6
:104360000051FDF76BF8E20940464FF48051FDF72C
:1043700065F8404602210122FDF760F8FDF7E0FDF7
:10438000A0FB0A01D9F800006FF0010202EA5141D6
:10439000D9F80020121A8A420ED2D9F80020121A37
:1043A0008A4209D2D9F80020121A8A4204D2D9F8D6
:1043B0000020121A8A42EBD3404602210022FDF768
:1043C0003DF8FDF7BDFDA0FB0A01890CD9F80000FE
:1043D00032246143D9F80020121A8A420ED2D9F849
:1043E0000020121A8A4209D2D9F80020121A8A42F1
:1043F00004D2D9F80020121A8A42EBD307F0010246
:1044000040460421FDF71AF8C7F3400240464FF436
:104410008061FDF713F8C7F3800240464FF4005166
:10442000FDF70CF8C7F3C00240464FF48051FDF78A
:1044300005F8404602210122FDF700F8FDF780FD56
:10444000A0FB0A01D9F800006FF0010202EA514115
:10445000D9F80020121A8A420ED2D9F80020121A76
:104460008A4209D2D9F80020121A8A4204D2D9F815
:104470000020121A8A42EBD3404602210022FCF7A8
:10448000DDFFFDF75DFDA0FB0A01890CD9F80000F6
:10449000614300BFD9F80020121A8A42BFF444AF2A
:1044A000D9F80020121A8A42BFF43EAFD9F8002092
:1044B000121A8A42BFF438AFD9F80020121A8A4281
:1044C000E8D331E7079800283FF4B0A940F66450DC
:1044D000C0F20A00CDF82B0046F26930C6F2654002
:1044E0000A9046F67560C6F6767040F2BC050990F3
:1044F000C2F2000509ACFFF7B3B900BF72B600BF46
:10450000FEE700BF53797374656D20737461727434
:1045100065642E0D0A00000046303D25336C752E73
:104520002530326C75487A20202000004E6F74656B
:104530003A252D3473206C61673D25326C7500007F
:104540002D2D2D0046303D256C752E2530326C7595
:10455000487A206E6F74653D2573206C61673D2538
:104560006C750D0A0000000030380A2801D20120C5
:10457000704700207047F1EE100A4FF6FF71C0F24D
:10458000C03120EA010040F04070E1EE100A7047AF
:10459000040000080000000000000002000100000C
:1045A00010000000000000000001020304060708DC
:1045B00009000000000102030400061016000610A6
:1045C00016000000A646000831200000A946000899
:1045D0001B2200009846000822240000AC46000878
:1045E000482600009C4600088F280000A0460008CE
:1045F000F82A000094460008862D0000A346000813
:104600003B300000C946000819330000B3460008DB
:1046100023360000CC4600085B390000B74600088E
:10462000C43C0000CF46000861400000D2460008AC
:1046300035440000BB46000844480000D546000849
:10464000904C0000BF4600081D510000C346000802
:10465000F0550000AF4600080C5B0000C64600089D
:1046600076600000E046000833660000D846000887
:10467000466C0000E3460008B6720000DC46000805
:1046800089790000E6460008C3800000E94600087A
:104690006B8800004123320046233200472332005A
:1046A000413200423200453200463200473200417A
:1046B000233300432333004423330046233300478E
:1046C0002333004133004233004333004433004579
:1046D000330046330047330043233400442334007F
:1046E0004334004434004534004634001047000889
:1046F0000000002010000000F8010008204700081A
:1047000010000020F0120000180200080000000055
:1047100001000000100000000024F4000000000070
:040000050800019559
:00000001FF
